{
  "contractName": "SimpleContract",
  "abi": [
    {
      "constant": false,
      "inputs": [
        {
          "name": "x",
          "type": "uint256"
        }
      ],
      "name": "setData",
      "outputs": [],
      "payable": false,
      "stateMutability": "nonpayable",
      "type": "function"
    },
    {
      "constant": true,
      "inputs": [],
      "name": "getData",
      "outputs": [
        {
          "name": "",
          "type": "uint256"
        }
      ],
      "payable": false,
      "stateMutability": "view",
      "type": "function"
    }
  ],
  "bytecode": "0x6060604052341561000f57600080fd5b60d38061001d6000396000f3006060604052600436106049576000357c0100000000000000000000000000000000000000000000000000000000900463ffffffff1680633bc5de3014604e5780635b4b73a9146074575b600080fd5b3415605857600080fd5b605e6094565b6040518082815260200191505060405180910390f35b3415607e57600080fd5b60926004808035906020019091905050609d565b005b60008054905090565b80600081905550505600a165627a7a72305820c424a07c6e1ecbf5825b9e978a305575c3a6b222510e03fe415c02ba69c0febd0029",
  "source": "pragma solidity ^0.4.18;\r\n\r\ncontract SimpleContract {\r\n  uint simpleData;\r\n\r\n  function setData(uint x) public {\r\n    simpleData = x;\r\n  }\r\n\r\n  function getData() public view returns (uint) {\r\n    return simpleData;\r\n  }\r\n}",
  "sourcePath": "C:\\Users\\erbileren\\Documents\\Projects\\blockchain\\react-app-scratch\\part3-truffle\\contracts\\SimpleContract.sol",
  "compiler": {
    "name": "solc",
    "version": "0.4.19+commit.c4cbbb05.Emscripten.clang"
  },
  "schemaVersion": "1.0.1",
  "updatedAt": "2018-02-03T18:12:35.497Z"
}